S325080000000C70002065010008E90B0008890B0008B90B00088D070008CD28000800000000CB
S32508000020000000000000000000000000AD23000839090008000000007B0100087D01000886
S32508000040012900087F0100087F0100087F0100087F0100087F0100087F0100087F010008A8
S325080000607F0100087F0100087F0100087F0100087F0100087F0100087F0100087F01000832
S325080000807F0100087F0100087F0100087F0100087F0100087F0100087F0100087F01000812
S325080000A07F0100087F0100087F0100087F0100087F0100087F0100087F0100087F010008F2
S325080000C07F0100087F0100087F0100087F0100087F0100087F0100087F0100087F010008D2
S325080000E07F0100087F0100087F0100087F0100087F0100087F0100087F0100087F010008B2
S325080001007F010008491000087F0100087F0100087F0100087F0100087F0100087F010008B8
S325080001207F0100087F0100087F0100087F010008DFF80CD000F05CFA00480047B9590008EF
S325080001400C700020EFF30980704780F309887047EFF30880704780F30888704740BA70478C
S32508000160C0BA70470648804706480047FEE7FEE7FEE7FEE7FEE7FEE7FEE7FEE7FEE7FEE7A4
S32508000180812400083101000840EA01039B0703D009E008C9121F08C0042AFAD203E011F82E
S325080001A0013B00F8013B521EF9D27047D2B201E000F8012B491EFBD270470022F6E710B597
S325080001C013460A4604461946FFF7F0FF204610BD421C10F8011B0029FBD1801A704730B5FA
S325080001E004460020034600E05B1C934203D2E05CCD5C401BF8D030BD30B50B46014600202B
S325080002002022012409E021FA02F59D4205D303FA02F5491B04FA02F52844151EA2F1010235
S32508000220F1DC30BD2DE9F05F0546002092469B4688460646814640241BE0284641464746AB
S32508000240224600F0F6F953465A46C01A914110D311461846224600F0DDF92D1A67EB0108FC
S325080002604F4622460120002100F0D4F917EB00094E41201EA4F10104DFDC484631462A46D2
S325080002804346BDE8F09F2DE9FE4F804681EA0300C00F0C46009021F0004123F00045B8EBFE
S325080002A00200A94105D24046214690461C460B46024623F00040104347D0270DC7F30A00FA
S325080002C0C3F30A510290401A019040286BDAC3F3130040F4801B0098924620B10023D2EB1C
S325080002E0030A63EB0B0B01985946C0F14002504600F090F906460D4650465946019A00F0E6
S32508000300A8F910EB08006141002487EA115284EAE7731A4340D0009A62B3019A012A4FEAAE
S32508000320075215DC001B61EB02014FF0004202EA0752CDE90042001C41F5801132462B4671
S3250800034000F0A6F903B0BDE8F08F40462146F9E7001B61EB0201001C41F5801300185B4159
S325080003602018A2F5001747EB030140EAD570B6196D4111E06D084FEA360645EAC0754FEAEF
S325080003800752001B61EB0201001C41F5801149084FEA30000019514132462B4603B0BDE803
S325080003A0F04F00F068B90098012240000023D0EB020263EBE073009821464FEAE074B8EB32
S325080003C0000061EB0401E9E783F000435BE781F0004158E72DE9FE4F81EA030404F00044F8
S325080003E021F0004100944FF0000B23F0004350EA01045ED052EA03045BD0C3F30A54C1F3C6
S325080004000A552C44A4F2F3340194A0FB0254C1F3130141F48011C3F3130343F4801301FB9C
S32508000420024400FB034E840A970A44EA815447EA8357A4FB076802958D0A05FB07854FEADE
S32508000440932C04FB0C542705029D4FEA065847EA1637B5EB08056EEB070C870E920E47EA11
S32508000460811742EA8312A7FB0201B6EB0B0164EB00042B0D43EA0C335E1844EB1C50DA469B
S325080004805146E7FB0201C5F313044FEA0B3343EA14534FEA0432019C43EA0603A4F10C0411
S325080004A00294009CCDE900B400F0F2F803B0BDE8F08F00200146F9E72DE9F04D81EA0304D5
S325080004C004F0004B21F0004514464FF0000A23F0004150EA050220D054EA01021DD0C5F36B
S325080004E00A570246C5F31303C1F31300C1F30A5640F4801543F48013A7EB0608101BD64622
S3250800050008F2FD3873EB050002D308F1010801E092185B41B8F1000F03DA00200146BDE89C
S32508000520F08D00204FF48011064684460EE0171B73EB050705D3121B63EB050306434CEAC2
S32508000540010C49084FEA300092185B4150EA0107EDD152EA030012D082EA040083EA05017C
S32508000560084305D0101BAB4106D20122002306E000224FF0004302E06FF0010253101AEBE2
S3250800058006004CEB085110EB0A0041EB0B01BDE8F04D00F070B8C1F30A52C1F3130140F276
S325080005A0FF3341F480119A4202DA00200146704740F233439A42A2F2334202DC524200F070
S325080005C038B800F027B8000030B5002904DB4FF00044404264EB0101002B04DB4FF000447E
S325080005E0524264EB0303994208BF904230BD0000064C074D06E0E06840F0010394E8070018
S3250800060098471034AC42F6D3FFF796FD2C5D00084C5D0008202A04DB203A00FA02F1002097
S3250800062070479140C2F1200320FA03F3194390407047202A04DB203A21FA02F000217047F3
S3250800064021FA02F3D040C2F120029140084319467047202A06DBCB17203A41FA02F043EAA4
S32508000660E07306E041FA02F3D040C2F12002914008431946704710B5002B08DA401C41F18C
S32508000680000192185B411A4301D120F0010010BD2DE9F04D92469B4611B1B1FA81F202E02A
S325080006A0B0FA80F220329046FFF7B4FF04460F4640EA0A0041EA0B0153465A46084313D0CE
S325080006C0114653EA010019D0C8F140025046FFF7B0FF05460E46504659464246FFF79AFF6D
S325080006E0084305D0012004E020463946BDE8F08D0020054346EAE0762C4337430A986305DF
S32508000700E40AA0EB08000022FD0A44EA47540A3002D500200146E9E7010510196941DDE971
S32508000720084500196941BDE8F04DA4E770B58D1810F8014B14F0030201D110F8012B2311CD
S3250800074006D110F8013B03E010F8016B01F8016B521EF9D1ABB110F8012B04F00C048A1A42
S325080007600C2C03D0A2EB84129B1C08E010F8014BA2EB0422F8E712F8014B01F8014B5B1EA4
S32508000780F9D5A942D4D3002070BD0000054C4FF4FA65206810B104A103F092FD284604F0D9
S325080007A0D2FDF6E7000000204275734661756C745F48616E646C65720D0A0000C10002D56D
S325080007C002490860704702494860704704040240000002400029016802D041F0010102E0F2
S325080007E04FF6FE72114001607047000001684FF6FE72114001600021016041608160C160D8
S325080008003149314A0839904203D1486840F00F0006E02D4A1432904204D1486840F0F000E5
S3250800082048607047284A2832904203D1486840F47060F5E7244A3C32904203D1486840F4E3
S325080008407040EDE7204A5032904203D1486840F47020E5E71C4A6432904203D1486840F4AE
S325080008607000DDE7184A7832904203D1486840F07060D5E7154A111F904203D1086840F043
S325080008800F0006E0114A1432904204D1086840F0F000086070470D4A2832904203D1086897
S325080008A040F47060F5E7094A3C32904203D1086840F47040EDE7054A50329042EAD10868ED
S325080008C040F47020E5E700000800024008040240406880B27047000002460020D10001D542
S325080008E0034900E003490968114200D001207047000402400000024030B5026847F6F0738F
S325080009009A430C6A8B682343D1E904452C4323438C692343CC6923434C6A23438C6A2343D7
S3250800092013430360CA6842600A6882604968C16030BD416070470000054C4FF4FA65206836
S3250800094010B104A103F0BCFC284604F0FCFCF6E70000002044656275674D6F6E5F48616E9A
S32508000960646C65720D0A00000149C860704700000020024070B505464FF43026304600F0B1
S325080009806FF8042811D1094C206940F0020020616561206940F040002061304600F060F845
S325080009A0216941F6FD721140216170BD0020024008490420CA68D20701D001207047CA683C
S325080009C0520701D502207047C968C906FBD5032070470000002002400248016941F080018F
S325080009E0016170470020024004490A6822F010020A600A6802430A607047000000200240E7
S32508000A00F0B506464FF400570D46384600F028F804280CD1064C206940F001002061358011
S32508000A20384600F01DF82169BA1E11402161F0BD00200240034A116801F03801014311603C
S32508000A4070470000002002400348024941600349416070472301674500200240AB89EFCD72
S32508000A6000B50346FFF7A4FF02E0FFF7A1FF5B1E012803D0002B00D1052000BD002BF4D116
S32508000A80FAE7F0B5CC78002204F00F03E40601D58C7823430C784FF00F0C14F0FF0F4FF0FD
S32508000AA0010E1BD005680E880EFA02F42640A64210D196000CFA06F725EA070703FA06F550
S32508000AC0CE783D43282E02D0482E02D002E0446100E00461521C082AE5D305600A88FF2A8E
S32508000AE01CD94468002202F108060EFA06F50E882E40AE420ED196000CFA06F7BC4303FAB9
S32508000B0006F7CE783C43282E00D14561CE78482E00D10561521C082AE5D34460F0BD00009C
S32508000B20F0B5144C002801DAE36900E06368450D2E0185B2C0F30157B540C0F30342032FC6
S32508000B4005D0C6020AD503269640B34307E023F07062636823F07063636002E0AB4343F0D3
S32508000B60706201B12A43002801DAE261F0BD6260F0BD0000000001400246002092680A4225
S32508000B8000D0012070470000054C4FF4FA65206810B104A103F094FB284604F0D4FBF6E72E
S32508000BA000000020486172644661756C745F48616E646C65720D0A00054C4FF4FA652068DD
S32508000BC010B104A103F07CFB284604F0BCFBF6E7000000204D656D4D616E6167655F4861B1
S32508000BE06E646C65720D0A00054C4FF4FA65206810B104A103F064FB284604F0A4FBF6E7AA
S32508000C00000000204E4D495F48616E646C65720D0A00000030B50F23C27801780125F2B1FB
S32508000C20144A126801F1E02102F4E062C2F5E062120AC2F10404D3404278A24084781C40CC
S32508000C401443220181F80024007800F01F018D404009800000F1E020C0F8005130BD01F079
S32508000C601F0085404809800000F1E020C0F8805130BD00000CED00E0024908430249086028
S32508000C80704700000000FA050CED00E0024A1140014302480160704780FFFF1F08ED00E002
S32508000CA0044A0029516901D0014300E0814351617047000000100240044A0029D16901D0FF
S32508000CC0014300E08143D1617047000000100240044A0029116901D0014300E081431161C7
S32508000CE07047000000100240044A0029916901D0014300E0814391617047000000100240B8
S32508000D00044A0029D16801D0014300E08143D160704700000010024010B500F033F84FF4FF
S32508000D208034204600F0C2F800F00EF9012822D11020FFF759FE0220FFF77CFE002000F0AF
S32508000D40ABF8002000F0DCF8A01100F0CFF84FF4E011204600F0E4F8012000F0DBF83920F3
S32508000D6000F07AF80028FAD0022000F0E3F800F08BF80828FBD1BDE81040012144F23C002C
S32508000D80FFF7B2BF0C48016841F00101016041680A4A114041600168094A114001600168C7
S32508000DA021F480210160416821F4FE0141604FF41F01816070470000001002400000FFF86C
S32508000DC0FFFFF6FE30B5204A5168204B11F00C0103D0042901D0082901D0036012E05168B1
S32508000DE0536801F470114FF0020413F4803F04EB914102D053689B0301D5154B00E0134B49
S32508000E005943016051680F2303EA1111114B5C5C0168E14041605468072505EA14241C5D06
S32508000E2021FA04F48460546805EAD4241B5DD940C1605268032303EA9232064B1B1F9A5C46
S32508000E40B1FBF2F1016130BD0010024000127A0000093D00CC020020034600205909094A76
S32508000E6001290AD002290AD0516A03F01F02012393400B4200D0012070471168F5E7116AD0
S32508000E80F3E70000001002400248406800F00C007047000000100240034A516821F0F00119
S32508000EA00143516070470000001002400B490A6822F480320A600A6822F480220A60B0F5F5
S32508000EC0803F07D0B0F5802F03D1086840F4A02008607047086840F48030F9E7001002403D
S32508000EE0014908607047000000004242034A516821F4E0610143516070470000001002409D
S32508000F00034A516821F4605141EAC000506070470010024001490866704700000000424260
S32508000F20034B5A68084322F47C1210435860704700100240034A516821F003010143516080
S32508000F40704700000010024018B500204FF6FF7400903120FFF780FF0099491C0091A1420D
S32508000F6001D00028F5D03120FFF776FF002800D0012018BD0149886370470000008001404E
S32508000F800149886370470000008001400149C1F8A000704700003042014908607047000061
S32508000FA08C05304210B5094902684A6242688A62CA6AD0E902342343D0E90440044322F07E
S32508000FC0F70223431343CB6210BD00000080014006480021016041608160C160416281629A
S32508000FE0C162034A8263C1637047000000800140FF07C00001480069C0B270470080014090
S32508001000034A01460020526B0A4200D00120704700800140034A01460020526B0A4200D00F
S3250800102001207047008001400248006800F00300704700000080014008B502490844009008
S32508001040006808BD1480014000F07ABB044A0029D16B01D0014300E08143D1637047000004
S325080010600080014030B5094B5A6847F6FF618A43017D8468C568214344682C432143046856
S325080010800069214301431143596030BD008001400148D0F8800070470080014010B5084957
S325080010A002688A60CA68D0E901342343D0E9034004436FF30A0223431343CB6010BD0000E3
S325080010C00080014004490A6822F003020A600A6802430A6070470000008001400149C1F865
S325080010E080007047008001402DE9F04701461C482A244068032817D018B1012801D00228FD
S325080011002CD1B1F5805F0FD04FF4006900260427144D4FF48048494511D1012001F036FC43
S3250800112004462A2803D019E02720BDE8F0872F752E60C5F810806E60C5E902690BE0002065
S3250800114001F024FC04462A2808D12F752E606E60AE60C5E903680348FFF784FF2046E4E7DF
S3250800116090020020400800202DE9F0478E49DFF83C824FF02A0C4B6880F84E300989A0F846
S325080011804C10D8F800100A0E94090470C2F38304447002F0030282700A0CC2700A0A027134
S325080011A04171D8F80420110E0901C180C488C2F3074144EA1114C48001F00F010172C2F308
S325080011C00721CC094472C1F380148472C1F34014C472C1F3001404734FF0000980F80D9036
S325080011E044464FF0010AA468260EC4F30745C4F3072723B1012B02D0022B2BD03CE089073F
S32508001200090D0161D1B2026942EA81010161016941EA96110161C6F3C201017506F00701BC
S32508001220417569098175C5F38201C175A907490F0176027E394642EAD11202760369027E20
S32508001240057A921C5B1C93400AFA05F25343C0E9113211E09106890A0161016941EA062153
S32508001260016101692943016102693946521CD20442644FF400728264C1F3801242768906CA
S32508001280490E00F81A1FE1B210F8022B42EAD11200F8022C01F07F0100F8011CD8F80C2039
S325080012A0110ECB090370C1F341134370C1F3820383708907090FC170C378C2F3074143EA95
S325080012C09113C370C1F34013037180F8059001F001018171C2F30721CB09C371C1F3801390
S325080012E00372C1F340134372C1F300138372C1F38103C37201F003010173C2F3460141736D
S32508001300534680F80EA0294A103211680C0E04740C0C24024482458AC1F30724254345825F
S3250800132009064161516845690C0E45EA044444614569C1F3074445EA042444614569C1F346
S32508001340072425434561017691680C0E44760C0C2406C461C569C1F3072445EA0444C461F2
S32508001360C469C9B244EA0121C161D168C46944EA1164C46190F82040C1F3074244EA1214DE
S3250800138080F820401207120D4284448CC1F3072214434484C1F3460180F8241080F8253029
S325080013A06046BDE8F08700009002002020080020F8B54FF4C060FFF75FFC31208DF800002C
S325080013C000258DF801508DF8025001208DF803006846FFF71FFC012130200095FFF784FC48
S325080013E04FF4F850ADF8000003208DF8020018208DF8030069461448FFF743FB0426ADF837
S32508001400006069461148FFF73CFB01218802FFF747FC01210220FFF743FCFFF7D9FD00F00F
S325080014209DF82A280FD100F015F804462A280AD1074831030675056045608560C0E9035179
S32508001440FFF710FE2046F8BD0010014000140140400800202DE9F84F01202A24ADF80000E0
S32508001460FFF7E2FDB8B3DFF8EC90D9F8040004286DD0394D4FF0C00A00260220C5F808A051
S32508001480C5E900604FF48068C5E903682846FFF705FE01F07DFE04462A281ED10020FFF778
S325080014A0CBFDA5F1280738600420FFF7C5FD78600820FFF7C1FDB8600C20FFF7BDFDF8601D
S325080014C0D9F804004F4650B1012808D0062806D0022804D014E0FFE72520BDE8F88F032022
S325080014E0E5E80260402085E841011B48083DFFF7D5FD6946032001F065FE04462A28ECD1B1
S325080015007868042823D0BDF80000B860000428600920C5E9010AC5E903680F48FFF7BEFD62
S3250800152001F036FE04462A28D7D10020FFF784FD094D383D28600420FFF77EFD68600820C5
S32508001540FFF77AFDA8600C20FFF776FDE8602046C3E7000090020020580800202DE9F84F8C
S3250800156000277348B221BB460175076047604FF480418760C0E903713D463E46B8465C4674
S32508001580FFF770FD0320FFF79DFD0120FFF7FEFCDFF89CA14FF480610AF1180A5046CAF869
S325080015A00040CAF80440CAF80840CAE90341FFF775FD4FF02A0942F2107401E0641E27D0EA
S325080015C08020FFF71DFD0028F8D00CB340F2FF50FFF7D0FC48462A287ED14FF4D570CAF8E2
S325080015E000000820CAF80400D9460AF1080140204FF4806B81E8010A4D4854461830FFF75D
S325080016004DFD4C4B2A2242F21070596B9A4604E00320E0E7DAF83410401E11F0450F06D0CA
S3250800162008B1480706D503220420009207E00028F0D1F8E7480605D52A2240200092FFF7D3
S3250800164099FC009A2A2A21D03721C4E900914021C4F810B0C4E9021935481830FFF71EFDF7
S32508001660372001F021FD32480021183037224FF0400980E80602C0E9031BFFF70FFD3720A2
S3250800168001F012FD04462A283ED04FE02A4801214FF080484160E6E7254C00261834372020
S325080016A0C4F80890C4E90060C4E9036B5F462046FFF7F4FC372001F0F7FC2A282ED11F49BB
S325080016C048EA010020602920C4E90109C4E903672046FFF7E3FC00E020E02A245146486B7F
S325080016E010F0450FFBD0400702D50324042001E040F2FF50FFF73EFC2A2C17D10020FFF76E
S325080017009BFCC60F07466D1C1EB94FF6FF708542C2D34FF6FF70854202D31B20BDE8F88FDB
S3250800172017F0804F02D00448022141602046F5E74008002000800140900200200000108036
S325080017402DE9F041634D0024E868012840D1C003FFF760FC58B1FFF79BFCE96A41F824007B
S32508001760641C082CF7D3E86A2030E8622DE04FF48040FFF74FFC58B3E9692869411A20290E
S3250800178018D2E969411A8907E969A0EB01004FEA90060CD0761C0AE0A86A0068FFF79EFC05
S325080017A0A86A001DA862E869001DE861641CB442F2D30DE0A86A50F82400FFF78FFC641C84
S325080017C0082CF7D3A86A2030A862E8692030E8614FF480763046FFF71DFC00244CF23A3815
S325080017E048B3E86890B177033846FFF709FC68B1E8692969884209D2FFF74AFC0146E86AE6
S3250800180002C0E862E869001DE861EDE7686901280ED02A2028703046FFF7B2FB00214046A9
S32508001820FFF714FC0120A861EC612878BDE8F08100F0C8FAEEE70220FFF7ECFB50B10220BE
S32508001840FFF79EFB00214046FFF700FCEC6102202870EBE70820FFF7DDFB50B10820FFF764
S325080018608FFB00214046FFF7F1FBEC6104202870DCE72020FFF7CEFB50B12020FFF780FBCA
S3250800188000214046FFF7E2FBEC6106202870CDE71020FFF7BFFB50B11020FFF771FB00216D
S325080018A04046FFF7D3FBEC6105202870BEE74FF400763046FFF7AEFB50B13046FFF760FB8B
S325080018C000214046FFF7C2FBEC6107202870ADE72A20ABE7900200202DE9F84F15460C00AE
S325080018E006467DD0DFF810922A2089F800000027C9F81870DFF804826FF07F41C9F81070D0
S32508001900C8E90017C8F80870C8F80C70C8F810704046C8F81470FFF745FB0020FFF73CFBF0
S325080019200020FFF789FB800102D50E20BDE8F88F71484FF4007B4068022856D07602681EE0
S32508001940B0F5006F4FD205424DD1284601F07AFEDFF8A8910090A9F1140948461021C0E949
S3250800196000514FF0400AC9E902A78901C9F81010FFF794FB102001F097FB2A28D6D16FF029
S325080019807F40C8E9000500980001C8F808000220C8E903070120C8F814005848FFF702FBFE
S325080019A0DFF8548148461121C8E90457C8F82C40C0E90061C9E902A74FF48061C9F810100B
S325080019C0FFF76CFB112001F06FFB06462A28ADD1D8F80C00474650B102283DD0012800E04A
S325080019E001E078D086E02620A0E75D46A7E7012140F22A30FFF72AFB0120FFF7CDFA294636
S32508001A00204601F02FFD002444F620653C4F0FE00A2003F0A5FC2046641CA84208DD3948E4
S32508001A2004260068002865D037A102F049FC61E03846FEF751FF0028EAD05BE04846FFF7F5
S32508001A40DFFA70B10025FFF723FB44F825006D1C082DF8D3203404E02F4F4FF4004940F2E7
S32508001A602A68786B10EA080FE8D00820FFF7C8FA20B10820FFF77EFA042057E70220FFF759
S32508001A80BFFA20B10220FFF775FA02204EE72020FFF7B6FA20B12020FFF76CFA062045E72B
S32508001AA05D465846FFF7ACFA40B12846FFF762FA07203BE7FFF7ECFA01C401E04FF4001567
S32508001AC02846FFF79DFA0028F4D140F2FF50FFF751FA0FE0FFE7012148F22A30FFF7B6FA1D
S32508001AE0B86910B938782A28FAD038782A2801D038781BE7304619E7900200206C080020E1
S32508001B0000200010000000202F2F53442054494D454F55520D0A0000008001402DE9F84FF8
S32508001B201E4617460C00054651D0DFF840922A2089F800004FF0000AC9F818A08C496FF0F4
S32508001B407F42C9F810A0C1E9002AC1F808A0C1F80CA0C1F810A00846C1F814A0FFF722FA75
S32508001B600020FFF719FA0020FFF766FA800102D50E20BDE8F88FD9F80400022829D04FEAD5
S32508001B804528781EB0F5006F21D207421FD1384601F058FDDFF8D8B10090ABF1140B5846E7
S32508001BA01021C0E900714021CBE9021A0901CBF81010FFF773FA102001F076FA05462A281D
S32508001BC0D7D1012E41D97E43B6F1007F05D32620CFE74FF40077A846D3E74F46C9F82C4027
S32508001BE001226348C7E904626FF07F41C0E900160099D1460901816002214261C0E9031AEE
S32508001C005546FFF7CFF94146CBF800105846D84612214FF0400BC560C0E9011B54484FF4C1
S32508001C20806A1438C8F810A0FFF738FA122001F03BFA05462A289CD1F86840F22A3202284E
S32508001C4012D0012867D0002875D08CE04FF40040FFF7D6F940B10026FFF71AFA44F8260090
S32508001C60761C082EF8D320344248406B40F22A310842EBD00820FFF7C3F920B10820FFF7DF
S32508001C8079F9042075E70220FFF7BAF920B10220FFF770F902206CE72020FFF7B1F920B101
S32508001CA02020FFF767F9062063E74FF400763046FFF7A6F940B13046FFF75CF9072058E734
S32508001CC0FFF7E6F901C401E04FF400163046FFF797F90028F4D14FF48070FFF791F9A8B12D
S32508001CE0786818B1022801D001280FD149460C2288E806081E48C8E9039A1438FFF7CEF931
S32508001D000C2001F0D1F905462A28BBD140F2FF50FFF730F927E0012148F22A30FFF796F9C3
S32508001D20B86910B938782A28FAD038782A281AD038781EE7FFE701211046FFF787F9012049
S32508001D40FFF72AF93146204601F08CFB0A4C2046FEF7C2FD0028FAD0B8690028E5D13878F6
S32508001D602A28F9D0E1E7284603E70000900200206C0800200080014000200010094910B5CC
S32508001D80086007204860402088600020C8604FF4806008610846FFF781F9BDE81040072008
S32508001DA001F082B9580800202A2130B1012804D0022802D0262108467047014AD060FAE79C
S32508001DC090020020084810B500210C22C0E900124022C0E9022111010161FFF75FF9BDE88F
S32508001DE010400C2001F060B9580800202DE9FC5F06464FF0000017460C008DF8000005469A
S32508001E0064D0DFF894822A2288F80020C8F81800A2496FF07F42C8F81000C1E90020886042
S32508001E20C860086148610846FFF7BCF80020FFF7B3F80020FFF700F9800102D50E20BDE867
S32508001E40FC9FD8F80400022842D04FEA4628781EB0F5006F3AD2074238D1384601F0F2FBBE
S32508001E608E4E0190143E1020C6E900704020B0600020F0604FF4806030613046FFF70EF93F
S32508001E80102001F011F92A28D9D183484FF00D094FF0400A0089B346010486E80206002146
S32508001EA0F1604FF4806130463161FFF7F7F80D2001F0FAF82A28C2D10020FFF7BDF86FF093
S32508001EC07F464FF4806A4FF000091FE02620B6E74FF40077B046BAE76F48761E00890104AE
S32508001EE0CBF800100D21CBF804104021CBE902196A48CBF810A01438FFF7D0F80D2001F07F
S32508001F00D3F82A289BD10020FFF796F8C00502D4002EE1D130E076B358461821C0E90081D1
S32508001F204021CBE902195D48CBF810A01438FFF7B5F8182001F0B8F82A2880D1DFF8588130
S32508001F4056484646C8F82840C6E904796FF07F42C0E90027019A01211201C0E90229C0E9B8
S32508001F600491FFF71FF8F06802282CD04546012859D0D0B37FE0FFE7292060E74FF48040FB
S32508001F80FFF73EF818B3D8F81000401B20280FD281074FEA900700D07F1C002605E0206882
S32508001FA0FFF79CF8241D2D1D761CBE420FD2F6E7002654F82600FFF791F8761C082EF8D304
S32508001FC02034203503E0DFF8D89040F21A6AD9F8340010EA0A0FD1D00820FFF711F828B1B9
S32508001FE00820FEF7C7FF042029E72BE00220FFF707F820B10220FEF7BDFF02201FE710209E
S32508002000FEF7FEFF20B11020FEF7B4FF052016E74FF400742046FEF7F3FF60B32046FEF783
S32508002020A9FF07200BE7012144F21A30FFF70EF8A86910B928782A28FAD028782A281AD0C1
S325080020402878FCE6012140F21A30FEF7FFFF3946204601F039FA0120FEF79EFF114C2046E0
S32508002060FEF73AFC0028FAD0A8690028E5D128782A28F9D0E1E740F2FF50FEF77BFF684625
S3250800208001F0F6F82A28AFD19DF800100729F6D00629F4D0D3E60000900200206C080020F4
S325080020A000800140002000102DE9FC5F07464FF00000994616460C008DF80000054662D0DB
S325080020C0DFF8D8822A2288F800208246C8F81800B3496FF07F42C8F81000C1E90020886097
S325080020E0C860086148610846FEF75CFF0020FEF753FF0020FEF7A0FF800102D50E20BDE8B4
S32508002100FC9FD8F8040002283FD07F02701EB0F5006F38D2064236D1304601F093FADFF8C2
S3250800212080B20190ABF1140B58461021C0E900614021CBE9021A0901CBF81010FEF7AEFF7A
S32508002140102000F0B1FF2A28D9D19448008901045846D34601600D2141604FF4806A4021C6
S32508002160C0F810A0C0E9021BFEF798FF0D2000F09BFF2A28C3D1B9F1010F62D909FB06F803
S32508002180B8F1007F04D32620B9E74FF40076BDE7824E706818B1012801D0022823D13089AD
S325080021A001047F4814380160372141604021C0F810A0C0E9021BFEF771FF372000F074FFF1
S325080021C02A289CD1764817211438C0E900914021C0F810A0C0E9021BFEF760FF172000F0AC
S325080021E063FF2A288BD16E4819211438C0E900714021C0E9021B09010161FEF74FFF19205C
S3250800220000F052FF2A28BFD10122B4626448C6E904826FF07F41C0E900180199B1460901F8
S32508002220C0E9021BC0E904B2DA46FEF7BBFEF06840F21A3202282AD04D46012875D000287A
S3250800224072D09BE04FF48040FEF7DAFE10B3D9F81000401B20280AD3002654F82600FEF732
S325080022603DFF761C082EF8D32034203512E081074FEA900700D07F1C002605E02068FEF79B
S325080022802DFF241D2D1D761CBE4203D2F6E7DFF814B19046DBF8340010EA080FD2D00820E1
S325080022A0FEF7AEFE20B10820FEF764FE042026E70220FEF7A5FE20B10220FEF75BFE0220D1
S325080022C01DE71020FEF79CFE20B11020FEF752FE052014E74FF400742046FEF791FE20B155
S325080022E02046FEF747FE072009E74FF48070FEF787FEE8B3D9F8040018B1012801D002280F
S325080023003CD127480C221438C0E900A24022C0E9022A11010161FEF7C1FE0C2000F0C4FE31
S325080023202A28C4D12AE000E00EE0012144F21A30FEF78CFEA86910B928782A28FAD0287879
S325080023402A281BD02878DAE601211046FEF77EFE0120FEF721FE4146204601F0B5F8124CCB
S325080023602046FEF7B9FA0028FAD0A869002800E004E0E4D128782A28F7D0E0E740F2FF509C
S32508002380FEF7F8FD684600F073FF2A288FD19DF800100729F6D00629F4D0B0E690020020AD
S325080023A06C0800200080014000200010054C4FF4FA65206810B104A101F082FF284602F0D7
S325080023C0C2FFF6E7000000205356435F48616E646C65720D0A0000000CB50023264800932C
S325080023E00193016841F4803101604FF6FF71026802F400320192009A521C0092019A12B9B1
S32508002400009A8A42F3D10168890333D5012101911A490A6842F010020A600A6822F00302C7
S325080024200A600A6842F002020A604168416041684160416841F480614160416821F47C11D3
S325080024404160416841F4E8114160016841F08071016001688901FCD5416821F00301416046
S32508002460416841F0020141604168C1F381010229FAD10CBD01930CBD001002400020024021
S325080024800F4810B5016841F00101016041680D4A1140416001680C4A11400160016821F434
S325080024A080210160416821F4FE0141604FF41F018160FFF791FF05494FF00060086010BDC2
S325080024C0001002400000FFF8FFFFF6FE08ED00E00029018802D041F0800101E021F0800135
S325080024E0018070470029018802D041F0010101E021F0010101807047002930F8441F02D02D
S3250800250041F4004101E0C1F30E010180704700004B4910B5884202D10121C41486E0B0F164
S32508002520804F09D0474988420DD101210220FEF7CFFB0021022064E001210846FEF7C8FBFB
S32508002540002101205DE04049884206D101210420FEF7BEFB0021042053E03C49884206D132
S3250800256001210820FEF7B4FB0021082049E03849884206D101211020FEF7AAFB002110208E
S325080025803FE03449884206D101212020FEF7A0FB0021202035E03049884202D101214414F8
S325080025A044E02E49884202D10121CC043EE02C49884202D101210C0538E02A49884202D158
S325080025C001214C0532E02849884206D101214020FEF77EFB0021402013E02449884206D1E4
S325080025E001218020FEF774FB0021802009E0204988420AD1841501212046FEF769FB002154
S325080026002046BDE81040FEF763BB1A49884202D101210C040AE01849884202D101214C04B2
S3250800262004E0164988420AD101218C042046FEF767FB2046BDE810400021FEF761BB10BDDB
S32508002640002C01400004004000080040000C0040001000400014004000340140004C014081
S32508002660005001400054014000180040001C00400020004000400140004401400048014083
S3250800268070B5028C22F010020284028C8388048B0D8824F4E6464FF6FF7404EA0525354386
S325080026A00E8922F0200204EA061616434A8804EA02123243104EB04202D0104EB04215D13D
S325080026C022F080064A8923F4406304EA0212324322F040068A8804EA021232438E8904EA6A
S325080026E086061E43CB8904EA8303334383800583C9880187028470BD002C014000340140A8
S32508002700028B4FF6FF7322F4006203EA012111430183704730B502881B4C1C4DA0420DD053
S32508002720A8420BD0B0F1804F08D0194B984205D0184B984202D0184B984203D122F07003C6
S325080027404A881A43154B984206D0154B984203D022F44073CA881A4302808A8882850A887A
S325080027600285A0420AD0A84208D00E4A904205D00D4A904202D00D4A904201D1097A018647
S325080027800121818230BD0000002C0140003401400004004000080040000C0040001000400F
S325080027A000140040004001400044014000480140C943018070470029818902D041F4005159
S325080027C001E021F4005181817047002A828A01D00A4300E08A43828270470246002012882D
S325080027E00A4200D00120704710B5C1F3421301F01F040121A140012B07D0022B07D01430A7
S32508002800002A026805D00A4304E00C30F8E71030F6E78A43026010BD30B50446008A85B0EE
S325080028200D464CF6FF710840E98801432182A0894EF6F3110840A9882A8911436A890243BC
S325080028401143A181A08A4FF6FF410840A9890143A1826846FEF7B6FA1948844201D103987D
S3250800286000E00298A189090400EBC00101EB0010296801D5490000E08900B0FBF1F06422C6
S32508002880B0FBF2F109010B096FF018056B4300EB8300A3891D044FF0320306D503EBC0009C
S325080028A0B0FBF2F000F0070005E003EB0010B0FBF2F000F00F000843208105B030BD000089
S325080028C000380140C1F3080181807047054C4FF4FA65206810B104A101F0F2FC284602F0DC
S325080028E032FDF6E70000002055736167654661756C745F48616E646C65720D0A0000000079
S325080029000B48006810B10BA101F0DAFC4FF47A7002F019FD012080F313880B4801680B4A45
S3250800292001F4E06111430160BFF3408FFEE7000000000020575744475F49525148616E6419
S325080029406C65720D0A0000000CED00E00400FA05426A0068490A8078B1FBF0F0121D02CA4D
S3250800296019B1884203D3401AF8E7002070471168084470474269891E921E8A4201D800208C
S325080029807047826A807801FB002070472DE9FC4700248146009420460194FEF74DFB80012A
S325080029A002D50E20BDE8FC87264D6946288980B200F05CFE2A28F5D13720234E01994FF0D4
S325080029C0060A4FF040084FF48067B9F1010F1ED0C90334D52989C6F808800904C6E90010E7
S325080029E0C6E903473046FEF759FB372000F05CFB2A28D7D1C6F80880C6E9004AC6E9034741
S32508002A001148FEF74BFB062000F04EFBCAE7490315D52989C6F808800904C6E90010C6E95B
S32508002A2003470948FEF73AFB372000F03DFB2A28B8D10220C6F80880C6E9000ADEE725203E
S32508002A40B0E7000090020020580800202DE9F04789460C6800E0641C21782F29FBD05C296E
S32508002A60F9D085690B222021284600F03EFF0020024617464FF0080CE15D7F1C20292ED947
S32508002A802F292CD05C292AD02E2901D060450AD3BCF1080F30D12E292ED1082091064FF092
S32508002AA00B0C0A0EE8E7802926D220A300E05B1C1E7816B18E42FAD11EE0A1F14103192B3F
S32508002AC002D842F0020207E0A1F16103192B03D8203942F00102C9B22954401CCCE73C44C7
S32508002AE0C9F80040202901D8042100E0002118B12878E52803D004E00620BDE8F0870520EB
S32508002B002870BCF1080F01D19006020E02F00300012801D141F01001C2F38100012801D170
S32508002B2041F00801E9720020E7E70000222A2B2C3A3B3C3D3E3F5B5D7C7F00002DE9FF47E7
S32508002B404FF000090746C0F800901646084600F05CFA050003D50B2004B0BDE8F0878248F8
S32508002B6050F825408CB13C60207820B1607802F00DFCC1070BD084F80090E8B2607002F07A
S32508002B80F4FBC10708D00320E6E70C20E4E70EB1400704D40020DFE71EB1400701D50A20D7
S32508002BA0DAE700252946204600F07AFF012822D100206E4604EB001191F8F22101F5F771F9
S32508002BC02AB10A7AD1F8091042EA012100E0002146F82010401C0428ECD3002756F82750B6
S32508002BE025B12946204600F05BFF00E0022040B17F1C042FF2D3032801D0E0BB01E00120B3
S32508002C00AAE7B4F83B00B0F5007F5DD1B4F8461029B994F85400D4F8551040EA0121A16199
S32508002C2094F840C084F803C0BCF1010F02D0BCF1020F49D194F83D600CFB01FCA670D6B18A
S32508002C40701E064240D1B4F84120228110073BD1B4F8430028B994F85000D4F8513040EA89
S32508002C600320E38F3BB103EB0C0707EB1217B8422AD3C01B00E027E0B0FBF6F020B3012665
S32508002C8040F6F678404500D302264FF6F678404500D30326801C2F44A7622B446061C4E9D9
S32508002CA00753032E12D07AB103EB0C026262022E17D000F0010200EB400002EB500000F24A
S32508002CC0FF10B1EB502F0ED20D2045E7002AFBD194F85C20D4F85D30800042EA0322626297
S32508002CE0EDE74000EBE74FF0FF302061E06080206071032E30D1B4F8600001282CD1204676
S32508002D00691C00F08CF838BB84F80590B4F82E02A0F52A4155391FD194F83000D4F8311085
S32508002D2040EA01201149884216D194F81402D4F8151240EA01200E4988420DD194F81802AA
S32508002D40D4F8191240EA0120206194F81C02D4F81D1240EA0120E06003492670091F0888D8
S32508002D60401C0880E08015E7E0020020525261417272416173B50446019908782F2801D083
S32508002D805C2801D1491C01910025A56001980078202805D20021204600F006FD65617CBD05
S32508002DA001A92046FFF752FE0028F8D10021204600F0FAFCF8B92169206800F030F8D0B9ED
S32508002DC061690A7872B1CA7A12070ED40B25A26900236D1E08D311F8013B12F8016B9B1B02
S32508002DE0F7D002E0042006E02BB10021204600F085FE0028DFD0A169C97A28B10428CED174
S32508002E004907CCD405207CBD4907FCD46169C87AC006F7D5206800F0E4FEA060C0E770B572
S32508002E200446C06A0D46A8420ED0204600F03EF838B9607801232A4604F1300102F099FA61
S32508002E4008B1012070BDE562002070BD38B501210920FDF749FF0120ADF8000018208DF8D2
S32508002E60030003208DF8020069460E48FDF709FE01214803FDF738FF0B4C2046FFF748FB09
S32508002E804FF4FA6000F054FB01212046FFF72AFB01212046FFF730FBBDE83840002000F0CF
S32508002EA0C9B90000000C0140003401402DE9F0410446007900B3E66A04F130016078012391
S32508002EC032460F4602F064FA10B10120BDE8F08100202071206AA169301A88420CD2E5783B
S32508002EE008E0A0690123064460783246394602F04FFA6D1E022DF4D20020E7E72DE9F041A6
S32508002F000F00064606D000F08DFC022809D20120BDE8F081F56815B17069A84207D80125D2
S32508002F2005E0411CF4D071698142F1D83D462C467069641CA04202D80224022D0AD3214674
S32508002F40304600F06FFC38B1411CE1D00128DFD0AC42EDD10020DBE76FF070422146304647
S32508002F6000F0CAFC30B957B122463946304600F0C3FC20B101280DD001242046C8E7F4602B
S32508002F803069411CF9D0401E3061707940F001007071F2E74FF0FF34EFE770B504460126C3
S32508002FA0002100F001FC88B9002521692068FFF736FF58B961690978E5290AD049B10025EF
S32508002FC00121204600F09AFD0028EED0042804D004E06D1CB54201D0F2E70720050012D1D1
S32508002FE021692068FFF71BFF05000CD120220021606900F07AFCD4E905010B2200F06DFCE4
S32508003000216801200871284670BD10B503464FF0FF301C68002C13D0214600E0491C0A78A7
S32508003020212A0ED33A2AF9D114F8012B303A0A2A06D28C4204D1002A02D1491C10461960A6
S3250800304010BD002010BD2DE9F0410F460446022916D36069B84213D900261FE039462046F5
S3250800306000F0E0FB05001CD0012D09D0681C09D000223946204600F03FFC060011D103E025
S3250800308002260EE001260CE02069411C05D0401C2061607940F0010060712F466069B8424E
S325080030A0DCD83046BDE8F08170B5374905462A24486B10F0450FFBD0410702D50324042048
S325080030C003E0C00704D001242046FDF753FF59E0FDF790FFA8422BD140F2FF50FDF74AFF33
S325080030E00020FDF7A9FF294908424BD0002801DA1C2070BD410001D5092070BD810001D5FF
S325080031000A2070BDC10001D50B2070BD010101D50C2070BD410101D50D2070BDC10101D520
S325080031200E2070BD010201D50F2070BD410201D5102070BD810201D5112070BDC10201D52B
S32508003140122070BD010301D5132070BD410301D5142070BD810301D5152070BDC10301D5F7
S32508003160162070BD010401D5172070BD410401D5182070BD810401D5192070BD000701D581
S325080031801A2070BD204670BD0080014008E0FFFD10B50B4A2A24516B11F0450FFBD04807EF
S325080031A002D50324042003E0C80705D001242046FDF7E0FE204610BD40F2FF50F8E7000068
S325080031C00080014070B50C46194906462A25486B10F0450FFBD0410702D50324042003E08D
S325080031E0C00705D001242046FDF7C4FE204670BDFDF700FFB04212D140F2FF50FDF7BAFE5C
S325080032000020FDF719FF10F4604F03D0810404D5132070BD000C208007E0410401D5102052
S3250800322070BD000401D50F2070BD284670BD0000008001400249087001460248FFF75CB962
S32508003240C00200200034014070B50D4601464FF000601446814200D88000091AFDF716FD0C
S325080032602846FCF778FFA446BDE87040604700007CB5044600214F480091019100892A2554
S3250800328002044D4802600D2242604022C0E9022111010161FDF702FF4849486B019002E004
S325080032A04A6B0192104610F0450FF9D00198400702D50324042004E00198C00705D0012405
S325080032C02046FDF757FE20467CBDFDF793FE01900D2838D140F2FF50FDF74CFE0020FDF76B
S325080032E0ABFE0090C0F3432020703549009808425DD00098002801DA1C207CBD400001D52E
S3250800330009207CBD0098800001D50A207CBD0098C00001D50B207CBD0098000101D50C20BF
S325080033207CBD0098400101D50D207CBD0098C00101D50E207CBD0098000201D50F207CBDC3
S325080033400098400201D510207CBD0098800201D511207CBD0098C00201D512207CBD0098B9
S32508003360000301D513207CBD0098400301D514207CBD0098800301D515207CBD0098C00322
S3250800338001D516207CBD0098000401D517207CBD0098400401D518207CBD0098800401D5E3
S325080033A019207CBD0098000701D51A207CBD28467CBD00009002002058080020008001400B
S325080033C008E0FFFD2DE9F04104460068A1684FF0000882784FF00207521E02EA512212F09F
S325080033E0FF054FF0010610D129B1626A2AB12046FFF7AEFA04E0206902E0616900F012FAFA
S32508003400022818D3411C26D0606161692068FFF7B1FA80B1A2690544AA421FD0A07904F114
S32508003420280740060FD5206801233946407801F0AFFF80B903E0E7710220BDE8F081A079DE
S3250800344020F04000A071206801232A464078394601F08FFF10B1E6710120EEE74046A56191
S32508003460EBE7000070B58CB00E4604462C216846FCF7A3FE1148FDF7A1F9114D002128460A
S32508003480FDF7A8F90F48CDE900040020B108CDE902018021CDE90401890006918900CDE92B
S325080034A007108900CDE9091069462846FDF724FA01212846FDF78EF90CB070BD00F000106C
S325080034C0440402408080014070B58CB00D4604462C216846FCF771FE1248FDF76FF9124EA2
S325080034E000213046FDF776F91048CDE9000410200290A808039000208021CDE904018900A8
S3250800350006918900CDE907108900CDE9091069463046FDF7F1F901213046FDF75BF90CB0B9
S3250800352070BD000000F0001044040240808001402DE9F041304E054688B07068A84257D054
S325080035402E4890FBF5F4B4F57A4F01DA472017E02B48844203DA40F2CF200A2105E0294810
S32508003560844205DA41F61F40642194FBF1F407E004EBC4014FF6FE70C900421C91FBF2F422
S325080035800027641EADF81000DFF87C80ADF81440ADF81670ADF812708DF8187004A9404661
S325080035A0FFF7B8F86020ADF800000120ADF802000420ADF8040004EBD4704008ADF8060077
S325080035C00220ADF808000820ADF80A004001ADF80C00ADF80E7069464046FFF751F8082185
S325080035E04046FFF78DF801214046FEF771FF756008B0BDE8F0810000C002002040420F0099
S3250800360000C4090000A8610000340140F0B50024182544F6AD367243059F0EE094FBF5F66D
S3250800362005FB164C04FB042646FA0CF610F804C07E4086EA0C060E55641C9C42EEDB1846BB
S32508003640F0BD0000084A0021536A834205D192F8200070474008491CC9B20128FAD1C2E9BC
S325080036600810084670470000900200202DE9FC5F00244A4F00944FF4806801944025C7F8C7
S325080036801080C7E902540E464FF0080B1021C7E900B1A1463846FDF701FD1020FFF704FDD0
S325080036A02A2850D13E48AA464D460089000438603720C7E9010AC7E903983846FDF7EEFCA2
S325080036C03720FFF7F1FC2A283DD107F114006FF07F41C0E9001B302181600221C0E903153D
S325080036E001214161FDF75EFC3320C7F808A0C7E90050C7E903583846FDF7D0FC3320FFF75E
S32508003700D3FC05462A281ED1DFF898804FF4001A6F4640F22A69D8F8340010EA090F0AD189
S325080037205046FDF76DFC0028F5D0FDF7B1FC47F82400641CEFE70820FDF762FC28B10820C6
S32508003740FDF718FC0420BDE8FC9F0220FDF758FC20B10220FDF70EFC0220F4E72020FDF763
S325080037604FFC20B12020FDF705FC0620EBE74FF400742046FDF744FC20B12046FDF7FAFB81
S325080037800720E0E740F2FF50FDF7F4FB009800BA7060019800BA30602846D4E7580800201B
S325080037A0900200200080014070B5C18083680D460446012B34D020684169994230D923B978
S325080037C00178032904D1436A13B18078060110E00189A94224D9406A11E000F023F80346A0
S325080037E0401C1BD0022B1BD320684069984217D9AD1B2068B5421946EFD2FFF7BBF8E3600B
S3250800380070B100EB1510206105F00F013022206802EB411108446061002070BD012070BD22
S32508003820022070BD2DE9F0410D460446022909D36069A84206D92078012806D0022828D0F5
S32508003840032832D00120BDE8F081206A05EB550600EB56212046FFF7E2FA68BBC6F30800A3
S325080038602044761C90F83070206A00EB56212046FFF7D5FA00BBC6F308002044E90790F8AD
S32508003880300047EA002001D00009DCE7C0F30B00D9E7206A00EB15212046FFF7C0FA58B9AC
S325080038A0E8B204EB4000008ECDE7206A00EBD5112046FFF7B4FA10B14FF0FF30C3E740F27F
S325080038C0FF1000EA8500204490F83010D0F8310041EA002020F07040B5E703E011F8013B68
S325080038E000F8013B521EF9D27047C9B201E000F8011B521EFBD270472DE9F04716460D4634
S325080039000446022902D36069A84202D80220BDE8F087207806F0FF084FF00109012807D0A6
S32508003920022837D0032846D0022084F80490EEE7206A05EB550700EB57212046FFF76FFA02
S325080039400028F2D1C7F3080020443030E90703D0017868F31F1100E03146017084F8049049
S32508003960206A7F1C00EB57212046FFF758FA0028DBD1C7F3080121443031EA0702D0C6F32A
S32508003980071205E00A78C6F3032302F0F0021A430A70CAE7206A00EB15212046FFF73FFA0E
S325080039A00028C2D1E9B204EB4101320A81F8308081F83120B9E7206A00EBD5112046FFF7EC
S325080039C02EFA0028B1D140F2FF1101EA850121444FF07043D1F8312003EA0222324301F864
S325080039E0302F130A4B70130C8B70120ECA709CE770B50446FFF75AFA05004FD120780328EA
S32508003A0045D16079012842D1420204F1300000210646FFF76AFF552084F82E02AA2084F8D1
S32508003A202F02522084F8300084F83100612284F83220412084F83300722184F8141284F86A
S32508003A40151284F8160284F81722206984F81802010A84F81912010C84F81A12000E84F8D8
S32508003A601B02E06884F81C02010A84F81D12010C84F81E12000E84F81F02E2690123521C42
S32508003A80E2626078314601F083FC0020607100226078114601F06BFC00B10125284670BD09
S32508003AA010B5044600202071401EE0622046FFF7B6F908B1032010BDB4F82E02A0F52A4108
S32508003AC0553901D0022010BD94F86600B4F8671040EA01210848B0EB012F08D094F8821018
S32508003AE0B4F8832041EA0221B0EB012F01D1002010BD012010BD0000004641542DE9F04181
S32508003B00C78804467F1C38040E46000C2CD0206950B339075AD1401C2061E168206829B14C
S32508003B208278521E12EA171F04D04FE00089B8421AD94BE0FFF776FE0546012819D9681CE3
S32508003B4030D020684169A9423AD86EB1E168FFF7D5F905000BD0012D0BD0681C22D0206815
S32508003B60FFF7A4F9F0B906E00420BDE8F0810720FBE70220F9E720684FF400720021303012
S32508003B80FFF7B3FE29462068FEF7F4FE216800264FF00108C8620CE080F804802068FFF70B
S32508003BA085F908B10120E0E72068C16A491C761CC16220688178B142EED8C16A891BC162DF
S32508003BC0E56029462068FEF7D5FE2061E78007F00F013022206802EB41110844606100209E
S32508003BE0C3E70246488B1278032A02D1898A40EA0140704781760A0AC2760A0C0275090E4C
S32508003C004175704710B538B1016829B10A781AB1CA888088824201D0092010BD487801F055
S32508003C20B5FBC007F9D0032010BD00002DE9F04116460D46044600F069F8204600F0A6F8C1
S32508003C404FF0FF37B84202DA204600F09FF8E07800B304F5AC7033461AA26321804600F08F
S32508003C60DDFE0020E0600126606066706075A0752075E07594F8580130B10122414604F501
S32508003C80A26001F009FD40B125B142460EA1284600F016FB3846BDE8F0812670D4F81C3569
S32508003CA0236145B142460EA1284600F009FB13A1284600F005FB4146204600F0A2F9002039
S32508003CC0E9E70000257300006F70656E206661696C65642C2046696C65203A25730D0A0062
S32508003CE046696C65206F70656E65643A25732053697A653A25640D0A0000000046696C65B4
S32508003D002073656C65637465640D0A0070B50446007818B104F5A26001F047FBA07818B156
S32508003D2004F5E76001F041FB00252570A570642104F5AC70FCF741FAE5606560A56070BD35
S32508003D4070B5044690F825024FF0FF35E0B104F225200646FCF73CFA03463246002120463B
S32508003D60FFF764FF401C0AD02046D4F88C1200F071F9401C03D00025204600F065F9002054
S32508003D8084F82502C4F88C02284670BD70B50446FDF70EFB01460020E0702070A070E0608A
S32508003DA0304D60602A2907D0286810B12EA100F087FA4FF0FF3070BD04F52470FDF7D4F914
S32508003DC02A28286806D010B12CA100F079FA6FF0010070BD28B1D4F8D4120A0D32A100F03A
S32508003DE06FFAB4F8DC020004FDF7C8FF2A2807D0286810B130A100F063FA6FF0020070BDDD
S32508003E000020FDF7D1FF2A2807D0286810B135A100F056FA6FF0030070BD4FF40060FDF7FA
S32508003E2063F92A2807D0286810B139A100F048FA6FF0040070BD002001F097FA012219A183
S32508003E4004F5387001F002FC38B1286810B13DA100F036FA6FF0050070BD0120E07000206A
S32508003E6070BD0000000000202F2F534420696E6974206661696C210D0A0000002F2F3B236E
S32508003E8023232323232323232323234572726F722153445F47657443617264496E666F2824
S32508003EA029210D0A000000002F2F73697A653A202564204D0D0A00002F2F3B2323232323CB
S32508003EC0232323232323234572726F722153445F53656C656374446573656C6563742829E4
S32508003EE0210D0A002F2F3B2323232323232323232323234572726F722153445F53657444AE
S32508003F0065766963654D6F64652829210D0A00002F2F3B23232323232323232323232345F7
S32508003F2072726F722153445F456E61626C65576964654275734F7065726174696F6E28299B
S32508003F40210D0A002F2F3B2323232323232323232323234572726F7221665F6D6F756E74BB
S32508003F6028302C2026667329210D0A002DE9F843002504460095C078904689466F1EE0B3DD
S32508003F80207804F5A266C0B36B4642464946304601F01FFCC8B900980EE032464146484629
S32508003FA001F012FA10B1002078B901E00120FBE74846FCF70DF9009038B1E068606000995F
S32508003FC00844E0600846BDE8F883E07D10B16FF00100F8E7207818B1304601F0E6F9257040
S32508003FE06575A5752575E5752046FFF7A9FE401C04D001200028C7D0CFE700E0257038460F
S32508004000E1E770B5054609B10E4601E005F5AC763046FCF7DDF8044607E0301910F8010C82
S325080040202F2804D05C2802D0641E002CF5DC002C09DB2246314605F2C110FCF7A5F800200B
S32508004040291981F8C10170BDC178002901D000214170704770B50446C0780D4630B1207879
S3250800406020B104F5A26001F0F1F910B14FF0FF3070BDE5600020656070BD70B50025C57059
S325080040800570857004464570012084F8C001E560656025616575A5752575E575A561642148
S325080040A004F5AC70A560FCF788F84FF48A7104F14400FCF782F8642104F22520FCF77DF859
S325080040C084F8C1512046C4F88C52FFF75FFE204670BD000008B500200090312911D2032091
S325080040E08DF8020001EB4100064901EB80039B88ADF800308DF8032051F820006946FCF795
S32508004100C0FC08BD4400002001EB4100064901EB8000017A914206D0D0E900130AB10B61AD
S3250800412000E04B61027270474400002031290AD2064A01EB410002EB800152F820008988BA
S3250800414089B2FCF719BD002070470000440000202DE9F84380461E480168B1BB012101603D
S325080041600020009003208DF8020040F2FD10FCF7BBFD01211748FCF7D3FC154F00253F1DC5
S3250800418005EB450607EB8604607A102801D014280DD1207A57F826100028606801D0086114
S325080041A000E04861227AE9B24046FFF7ADFFA088ADF80000607A8DF8030057F826006946B6
S325080041C0FCF75FFC6D1C312DDAD34046BDE8F88340000020000430002DE9F0418846044656
S325080041E0D0F8280233491646A1F1200751F82050D4F83C02C8B194F8490260B12846FCF7A9
S3250800420067FB0028F7D1D4F83C3232464146D4F8440298474AE0D4F82802402157F8200024
S32508004220FEF7DBFA0028E6D0EDE794F84902D8B12846FCF74DFB0028FAD172B6701C0DD067
S3250800424000212846FCF7C6FAC5F80C80B1B22846FCF76FFB01212846FCF7BCFA62B6D4F87A
S325080042602802032817D021E0002511E0D4F8280218F8051057F82000FEF724FBD4F8280249
S32508004280402157F82000FEF7A8FA0028F6D06D1CB542EBDBE3E794F8250238B1054830385A
S325080042A0006818B1424604A100F00AF83046BDE8F0810000300000202D2D74783A257300AC
S325080042C00FB418492DE9F0410446D0F8280208AEA1F1200551F8207094F84902B8B1384625
S325080042E0FCF7F6FA0028F7D104F24B203346FF210546079A00F0A6FB002804DD02462946A6
S325080043002046FFF769FFBDE8F0015DF814FBD4F82802402155F82000FEF75FFA0028DBD0EC
S32508004320E2E70000300000202DE9FF4F05464FF0000991B0C5F81892C5F81C92C5F82092DD
S3250800434085F8249285F82592C5E98A19C5F83492C5F83892C5F83C92C5F840921E4685F892
S3250800436048920C4685F8496285F84A9201214846C5F84C13CDE90B900D900E900F901090EB
S325080043802C216846FBF719FF012C03D0032C01D0022C7DD14FF0030B8DF82EB04FF0180A7D
S325080043A04FF480674FF04808012C04D0022C34D0032C18D031E0012144F20400FCF794FCFC
S325080043C04FF40070ADF82C008DF82FA0DFF8C0A10BA95046FCF755FBADF82C708DF82F80BD
S325080043E00BA9504617E001210820FCF77DFC01218804FCF761FCADF82C70664F8DF82FA070
S325080044000BA93846FCF73DFBF814ADF82C008DF82F800BA93846FCF734FB13980C905E4FD8
S32508004420ADF83490ADF838900C20ADF83690ADF83C90ADF83A0057F824000CA9FEF7ECF9AF
S3250800444057F824000121FEF7B6F957F824004021FEF7AEF9032C02D04FF4867001E040F258
S325080044603C50A0F10100C5F8340201D0284600E04A48C5F83802002E7BD001210846FCF799
S325080044800FFCDFF8148108F1100858F8240000E076E0FCF7ABF957F824004E46001D009091
S325080044A0D5F83802CDE9010903A9D5F834024FF0800981E841024FF44050CDE90860069677
S325080044C007960A9658F824006946FCF715FA58F824000121FCF77EF957F824000122402175
S325080044E0FEF773F9A8F11400005D8DF840008DF841B08DF8426001208DF8430010A8FCF74D
S3250800450089FB57F82400002240F22661FEF76CF957F82400002240F22551FEF765F957F882
S325080045202400012240F22441FEF75EF908F1100858F82400FCF75AF957F824006946001D39
S32508004540009005F24B2001901020CDE90206CDE904694002CDE90860069607960A9658F830
S325080045602400FCF7C9F957F8240001228021FEF72CF909481038012C06D0022C06D04560BE
S3250800458015B02846BDE8F08F0560F9E78560F7E700080140000C014010000020E4020020E2
S325080045A070B50D46064608242806304602D500F0C1F901E000F0A2F96806050E641E002C3D
S325080045C0F2DC012213213068FFF79EFD3046BDE8704000F0A4B82DE9F04116460D46074625
S325080045E0002409E029783846FFF7DAFF384600F0E5F848B1641C6D1CB442F3DB384600F033
S32508004600C1F80120BDE8F081384600F0BBF80020F8E72DE9F04716468A4605469946006871
S3250800462000221B21FFF770FD300700D00120F21706EB127100EB211800242AE0284600F056
S325080046403CF909EB04173812A02141EA4000C1B22846FFF7A5FF284600F0B0F8012822D1F5
S32508004660F9B22846FFF79CFF284600F0A7F8D0B1604206EB0012102A00DD10220AEB04110C
S325080046802846FFF7A8FF07460A2000F05CFE57B1641C4445D2DB01221B212868FFF734FD6C
S325080046A00120BDE8F08701221B212868FFF72CFD0020F6E72DE9F0411D4616460F46804683
S325080046C000F0FBF82C0AA02040EA4400C1B24046FFF766FF404600F071F800281DD0E9B2A2
S325080046E04046FFF75DFF404600F068F8002814D0404600F0E2F8A12040EA4400C1B240467A
S32508004700FFF74EFF404600F059F8002805D032463946404600F05EF9F0B2BDE8F08108B54B
S3250800472032200090411E009101D30846FAE708BD10B50446006800221321FFF7E5FC2046C7
S32508004740FFF7EDFF2046FFF7EAFF012212212068FFF7DAFC204600F07DF8002212212068D2
S32508004760FFF7D2FC2046FFF7DAFF2046FFF7D7FF012213212068FFF7C7FC2046BDE810400D
S3250800478000F068B810B50446006800221321FFF7BBFC204600F05EF8012212212068FFF701
S325080047A0B3FC204600F056F8012213212068FFF7ABFC2046BDE8104000F04CB870B504465E
S325080047C0006801221321FFF79FFC2046FFF7A7FF2046FFF7A4FF012212212068FFF794FC16
S325080047E02046FFF79CFF2046FFF799FF482213212068FFF76FFC2046FFF791FF2046FFF7F1
S325080048008EFF13212068FFF791FC0546002212212068FFF779FC204600F01CF81422132157
S325080048202068FFF757FC3DB10448006810B104A1FFF746FD002070BD012070BD000000209D
S325080048402F2F6969632061636B206572726F72210D0A000008B532200090411E009101D383
S325080048600846FAE708BD10B50446006801221321FFF74AFC2046FFF752FF2046FFF74FFFD5
S32508004880012212212068FFF73FFC2046FFF7E2FF002212212068FFF737FC2046FFF73FFF1E
S325080048A02046FFF73CFF002213212068FFF72CFC2046BDE81040FFF7CDBF10B50446006803
S325080048C001221221FFF720FC012213212068FFF71BFC2046FFF7BEFF002213212068FFF789
S325080048E013FC2046FFF7B6FF002212212068FFF70BFC2046BDE81040FFF7ACBF10B50446E5
S32508004900006800221321FFF7FFFB2046FFF7A2FF012212212068FFF7F7FB2046FFF79AFF23
S32508004920002212212068FFF7EFFB2046BDE81040FFF790BF10B50446006801221321FFF748
S32508004940E3FB2046FFF786FF012212212068FFF7DBFB2046FFF77EFF002212212068FFF734
S32508004960D3FB2046BDE81040FFF774BF70B5002504462E46012213212068FFF7C5FB2046D4
S32508004980FFF768FF012212212068FFF7BDFB482213212068FFF79EFB2046FFF75BFF132181
S325080049A02068FFF7C3FB69060D0E08B145F00105142213212068FFF78DFB002212212068E2
S325080049C0FFF7A2FB2046FFF745FF761C082ED1DB284670BD2DE9F041002415460F468046A6
S325080049E0561E0BE0FFF7C2FF3855B442404602DAFFF79EFE01E0FFF736FF641CAC4240461C
S32508004A00F0DBBDE8F041FFF7BDBE10B5002102C0FFF79EFB014640F8041D10BD0FB41CB53E
S32508004A200A46521ECDE9000207A9054B6A46069800F0DCF8009A002111701CBC5DF814FB66
S32508004A401B5300087CB5491E1C461546CDE90001044B6A462146284600F0C8F8009A002187
S32508004A6011707CBD1B53000802E008C8121F08C1002AFAD170477047002001E001C1121FF5
S32508004A80002AFBD1704700002DE9FF5FDDE90220010DDDF838B0024318D044F61050A1F2DA
S32508004AA0FF3141430D140F98012820D0A5EB0B00401C5FEA000A4FF00004474EDFF81C91AD
S32508004AC0A046504616D5CAF1000728E00F98012443A2012808D0002100980F9BC0E90021B8
S32508004AE0C0E90243BDE8FF9F6FEA0B01F4E7CBF10000DEE7074612E0F80707D022463346C0
S32508004B0040464946FBF766FC804689462246334610461946FBF75EFC04460E467F10002F4B
S32508004B20EAD1DDE90201BAF1000F42464B4602DAFBF750FC01E0FBF7BFFC04460E460022A8
S32508004B40284BFBF741FD03D84FF0FF30014607E00022254B20463146FBF795FBFBF71BFD32
S32508004B60102409E0002C0ADB0A220023FBF75AFB019B30321A55641E50EA0102F2D1641CF4
S32508004B80019AC4F1110314440F9A012A03D0012208430DD10AE0084304D000204FF0110BD4
S32508004BA00F9080E7A3EB0B056D1E0DE05B4504DD4FF0000205F1010504E003DA4FF000020B
S32508004BC0A5F10105002AECD000980F99C0E90231C0E9004586E70000000024400000F03F3B
S32508004BE0300000000000F0430000E03F2DE9FF4F95B09B468946064600250FE2252877D1D5
S32508004C0000242746F84A0121059400E0044316F8013F203B01FA03F01042F7D130782A2826
S32508004C2011D06FF02F033078A0F13002092A16D8059A44F0020402EB820203EB4202104498
S32508004C40761C0590EFE759F8042B0592002A03DA504244F40054059044F00204761C307804
S32508004C602E2816D116F8010F44F004042A280DD06FF02F023078A0F13003092B09D807EB5D
S32508004C80870302EB4303C718761CF3E759F8047B761C30786C280FD006DC4C2817D06828B4
S32508004CA00DD06A2814D104E0742810D07A280FD10DE044F400140AE044F4801401E044F4A8
S32508004CC040147278824202D104F58014761C761C307866280BD013DC582877D009DC00286C
S32508004CE075D04528F6D04628F4D047281AD19DE118E0632835D0642879D0652812D195E1E1
S32508004D00702873D008DC6728F1D069286FD06E280DD06F2806D1B5E073282CD0752875D0B7
S32508004D20782874D05A46179990476D1C75E1C4F30250022809D003280DD0D9F8001004285A
S32508004D400DD00D6009F1040967E1D9F80010EA17C1E90052F6E7D9F800100D80F2E70D702D
S32508004D60F0E719F8041B8DF8001000208DF80100EA46012003E059F804AB4FF0FF306107D9
S32508004D804FF0000102D40DE008F101018846B9420FDA8045F8DB1AF808100029F4D108E0BD
S32508004DA008F1010188468142FADB1AF808100029F6D105985B46A0EB080721463846179AFC
S32508004DC000F094FA284400EB080507E04DE029E10DE01AF8010B5A4617999047B8F10108E1
S32508004DE0F7D25B4621463846179A13E142E00A220092C4F302524FF0000A022A08D059F828
S32508004E0004CB032A4FEAEC710AD00DE029E02AE009F1070121F00702F2E802C1914609E09F
S32508004E200FFA8CFC4FEAEC71042A03D14FFA8CFC4FEAEC71002907DA0A460021DCF1000C80
S32508004E4061EB02012D2202E0220504D52B228DF80420012203E0E20701D02022F7E7904618
S32508004E6059E00A2102E010220DE010214FF0000A00910BE010224FF0000A44F004040827E3
S32508004E80009203E008224FF0000A0092C4F30252022A05D059F804CB0021032A08D009E04F
S32508004EA009F1070121F00702F2E802C1914605E01FFA8CFC042A01D10CF0FF0C4FF0000880
S32508004EC0220728D5702806D0009B83F0100353EA0A0305D00EE040228DF80420012208E0EC
S32508004EE05CEA010206D030228DF804208DF8050002229046009B83F0080353EA0A030AD1C8
S32508004F005CEA010201D1620705D530228DF804204FF001087F1E582804D034A003900EA8D4
S32508004F2002900DE036A0F9E753466046009AFBF779F984460398825C0298401E02900270B2
S32508004F405CEA0100F0D1029806A9081A00F1200A600702D524F4803400E00127574502DD28
S32508004F60A7EB0A0000E0002000EB0A01009005984144401A0590E00306D45B462146179A7A
S32508004F80059800F0B3F90544002706E001A85A46C05D179990476D1C7F1C4745F6DBE00323
S32508004FA00CD55B462146179A059800F09FF9054404E030205A46179990476D1C0099481EF8
S32508004FC000900029F5DC08E0029802995A460078491C0291179990476D1CBAF10001AAF1B5
S32508004FE0010AF1DC65E10000092801003031323334353637383961626364656600000000F1
S32508005000303132333435363738394142434445460000000000F058F90544761C30780028F4
S325080050207FF4ECAD19B02846BDE8F08F620700D4062709F1070222F0070CFCE80223E14639
S3250800504003F000485FEA080C02D00FF2702C0DE05FEA045C02D50FF2682C07E05FEAC47CC9
S3250800506002D00FF2602C01E0AFF2700C4FF0FF3823F00043CDF850C065280CD006DC45286C
S3250800508009D046281DD047283DD13DE0662818D067287ED138E00021112F01DB112000E07A
S325080050A0781CCDE9000106A90EA8FFF7EDFCDDE90F010E9A03910021009207F1010A0491F6
S325080050C04DE04FF000400097CDE9011006A90EA8FFF7DAFCDDE90F0203920E9B11990022A6
S325080050E0DDF80CA00093049211B9791C00EB010AB7EB0A0004D4C0F1FF3007F1010A0490A8
S32508005100AAEB0700019044E0012F00DA01270021112F01DD112000E03846CDE9000106A9CA
S325080051200EA8FFF7B1FCDDE90F010E9A0391002104910092BA4621070CD40399514500DA9A
S325080051408A46BAF1010F05DD009AAAF10101515C302908D0B84202DA10F1040F06DA0121D3
S32508005160CDE9011015E0AAF10101E9E7002805DC049901440491AAEB000102E0411C51450D
S3250800518000DD8A460499401A401C01904FF000400290200704D40198504501DBCDF804800D
S325080051A000208DF84F0002980DF14F07B0F1004F25D02B200E9002984FF0020800280CDA40
S325080051C0404202902D200E9007E00A210298FBF713F83031029007F8011DB8F10001A8F1C6
S325080051E00108F2DC02980028EFD1791E0E980870307800F0200040F0450007F8020D12A89E
S32508005200C01B00F107081498007800B1012000EB0A01019801EBE07105984144401A401E09
S325080052200590E00306D45B462146179A059800F05DF805441498007818B15A461799904716
S325080052406D1CE00324D55B462146179A059800F04DF805441CE00498002807DBDDE903019B
S32508005260884203DD0098405C179901E0179930205A469047049805F10105401C0490019819
S32508005280401E019004D12E205A46179990476D1CBAF10001AAF1010ADDDC05E017F8010B33
S325080052A05A46179990476D1CB8F10001A8F10108F4DC5B462146179A0598ABE62D00000000
S325080052C02B000000200000002DE9F041044600251E461746880404D405E039462020B047FF
S325080052E06D1C641EF9D52846BDE8F0812DE9F041044600251E469046C80301D5302700E07B
S325080053002027880404D505E041463846B0476D1C641EF9D52846BDE8F0814A68002A06D0E3
S325080053200A68531C0B6010704868401E4860704708B50028009003DD0098411E0091FBD27C
S3250800534008BDAFF3008030B50446002242F6E06503E02846FFF7ECFF521CA242F9DB30BD45
S3250800536000EB40008000FFF7E3BF002070470020704710B510464FF40072012B03D0FCF76C
S32508005380CDFB002010BDFCF7A7FAFAE70020704710B510464FF40072012B03D0FCF784FEBA
S325080053A0002010BDFCF722FDFAE710B5044600F0B4FA002806D12046FEF724FC002801D1DE
S325080053C00021216010BD00002DE9F0411546926880460646EB79C2F308000024CBB9EB6886
S325080053E04F1E9A1ABA4200D21746BC421EDAC10513D1A8683F1B2044A86000242846FDF757
S32508005400E1FF020008D00D48006810B10CA1FEF757FF0020BDE8F08100202918401C91F8D2
S325080054202810641C06F8011B0A29DED100203070A8682044A8604046ECE7000000000020F5
S325080054407265733A25640D0A000000002DE9F84F0D460446FEF7D6FB5FEA000A7ED1E0795F
S3250800546000287BD1666A4FF0010904F12808002E64D0681C2AD0E068A84200D20546A56038
S32508005480002D48D02046691EFDF762FA6061226801461046FDF76EFA00286ED021686D1EBE
S325080054A08A78521E02EA552215182089C005E8D0A269AA42E5D0A079400634D548780123BE
S325080054C04146FFF765FF002871D128E056F804BB21690227C9B10025BF1C009188466D1C49
S325080054E02068FEF79FF90146012846D9481C5ED008F101008142F1D05F4502D820C60098EE
S3250800550001C6206840698842E5D8606A5F45076002D80020306097E04FF0110A94E0A07941
S3250800552020F04000A071206801232A4640784146FFF71FFF002879D1A56185E0E068A8427E
S3250800554003D2A179890700D405460027A068A76015B3226891784E0280B100E058E0691EEE
S32508005560401EB1FBF6F1B0FBF6F3994206D3711E8843A0602D1A61690DE047E0216949B9D9
S3250800558000211046FDF7BAFC014601283ED0481C4CD021616161D9B927E0A07980072068D9
S325080055A006D5FDF7ABFC010005D1354612E03DE0FEF738F90146481C38D0012926D920687C
S325080055C04069884222D96161A068AD1B3044A060B542E2D8A0682844A060E80505D02068DA
S325080055E0FDF7C8F990B100EB55272089C00522D0A269BA421FD0A07940060FD520680123FB
S3250800560041464078FFF7C4FE80B903E00220E071BDE8F88FA07920F04000A07120680123A4
S325080056203A4640784146FFF7A4FE18B184F807900120EDE7A761D4E90201884204D9E06085
S32508005640A07940F02000A0715046E1E717B581B01446029800906846FDF7D7FC002802DA6A
S325080056600B2004B010BD0B4B002253F8201001B10A700199002900D00A7043F8201001D008
S32508005680012C01D00020ECE7002202A901A8FDF755FAE6E7E00200202DE9F7478BB00600EE
S325080056A00ED04FF0000802F01F0727F001020CA96846C6F80080FDF741FA050004D086E076
S325080056C009200EB0BDE8F08707A8069068460C99FDF750FB059C050001D104B9062517F07B
S325080056E01C0F4AD055B1042D03D16846FDF755FC0546059C47F0080745B168E0E07A10F08F
S32508005700110F44D1780701D5082560E0380744D500F04FF9A073010AE173010C2174000ED2
S32508005720607484F80B8084F81C8084F81D8084F81E8084F81F8021460098FEF752FA814613
S3250800574000212046FEF756FA00990120B9F1000F087120D000984946D0F82CA0FDF773FC75
S32508005760050034D10099A9F10100C86051460098FDF755FB05000CD029E045BBE07AC10637
S3250800578001D5042523E0B90703D5C00701D007251DE0380701D547F0200700982146C06A04
S325080057A0C6E90704B77186F8078047460098FEF718FA3061207FD4F81D1040EA0120C6E9A5
S325080057C00270B761776200983060C088B080284677E72DE9F84F894600219A461646044619
S325080057E01960FEF70FFA002812D1E07900280FD1A079C0070BD0D4E90210401A04F12801B6
S325080058004FF0010B0091864200D9064680E00720BDE8F88FA168C80562D120688278521E03
S3250800582002EA512212F0FF0510D129B1626A2AB12046FDF78DF804E0206902E06169FDF7A7
S32508005840F1FF022819D3411C44D0606161692068FDF790F888B100EB0508770A21D0206809
S32508005860EA1981788A4200D94F1B40783B4642464946FFF77EFD68BB02E00220E071C7E728
S32508005880A07940060BD5A169A1EB0800B84206D209EB40204FF400720099FEF71EF87D021F
S325080058A02CE0A269424519D0A07940060AD52068012300994078FFF76BFD58B9A07920F080
S325080058C04000A07120680123424640780099FFF750FD18B184F807B0012099E7C4F81880B0
S325080058E02089C0F30800C0F50075B54200D9354601192A4648462831FDF7EFFFA068A94479
S325080059002844A060DAF800004119761BCAF80010002E7FF47FAF00207AE770B50446FEF7CA
S3250800592071F900280ED1A1798A060BD548060ED52068012304F128014078A269FFF728FD85
S3250800594008B1012070BDA07920F04000A071E1692068FDF764FA0028F4D1256AE87A40F086
S325080059602000E872207B2877A089000A6877E068000CA877E068000EE87728462169FEF73E
S3250800598039F900F016F8A875010AE975010C2976000E68760020A874E874A07920F02000CA
S325080059A0A0712168012008712068BDE87040FEF71FB80020704700000024ADF5EA5D894D42
S325080059C0A046FBF7A9F901230DF51B694FF4E13219464846FEF7A8FC01AF3846FEF74DFB4E
S325080059E041F6085BEB445846FEF7B2FB0DF5E850FFF70BF80020CDF89809FDF727FA7A4EFA
S32508005A0009237AA23068CDF8980949463846FEF70DF9002833D1012217215846FEF774FBA1
S32508005A2005984FF4EF2398427EDA01208DF81A000C220DF69C113846FEF798FA0C28E9D1A3
S32508005A406D49DDF89C0988426FD1DDF8A009CDF8A809302304220DF6AC110DF5E850FEF7A2
S32508005A6029FE0DF6A8100DF5A85A03C84FF400698142DDF8980900F1010001D110B175E0A8
S32508005A80002850D1302304220DF698110DF5E850FEF7BFFD47E000204FF4007157F8202015
S32508005AA0401C55408842F9DBDDF8A8090DF5506B00904B4622465946BA463846FDF7A6FDC9
S32508005AC006EBC42007464A46594600F0F1F849465046FAF772FB38464A46514600F0DEF8A0
S32508005AE04A4651465846FAF77AFB48B106EBC42242A10DF51B60FEF7E3FB4FF001081DE025
S32508005B003A4646A10DF51B60FEF7DAFB1920641C94FBF0F100FB1140012817D0042815D033
S32508005B200020FDF787FB01E044E01AE04A465746514601A8FEF71AFA0028ACDCDDF8A4091A
S32508005B40A8423DD1B8F1000F02D039E00120E8E7302304220DF6A8110DF5E850FEF759FDF2
S32508005B6004E033A10DF51B60FEF7AAFB1E4A3168121DCDF89819126830464B1C04D0FDF783
S32508005B8063FB0020FDF756FB314C4FF4FA65AE10206810B12FA1FEF793FB0120FDF74AFB61
S32508005BA02846FFF7CEFB0020FDF744FB3046FFF7C8FBEDE702462BA10DF51B60FEF780FB53
S32508005BC041F288344FF47A750120FDF733FB2046FFF7B7FB0020FDF72DFB2846FFF7B1FBF9
S32508005BE0F2E7000023433DEF008800087570646174652E7A77000000443D2D3F7772697447
S32508005C0065206461746120746F20616464723A2578204572726F72210D0A0000777269749A
S32508005C206520616464723A2578200D0A000000002F2F5468652066696C65206973206E6FF0
S32508005C4074207570646174652066696C650D0A00000000206E6F206669726D776172650DC1
S32508005C600A0000006669726D776172652073697A65203A25642062797465206578636565F3
S32508005C806420616C6C6F7765642073706163652073697A653A25640D0A00000010B50023C1
S32508005CA002E0C45CCC545B1C9342FADB002010BD2DE9F047074602EBD27020F00100101AA2
S32508005CC0002486188946700500D00120F21706EB525100EBE1280120FBF702F92120FBF7ED
S32508005CE0BBF80028FAD00120FBF7FAF8FAF7ACFE3420FAF739FE002504E007EBC520FAF704
S32508005D0039FE6D1C4545F8DB06EBD675B4EB650F07DA39F8141007EB4400FAF771FE641CBD
S32508005D20F4E7FAF759FE0020BDE8F0874C5D000800000020E40200002C070008585E000846
S32508005D40E4020020286D0000784A0008A20001300425262708100A38014000440040004820
S32508005D6004110F1006580002406C041230042110124410128010521C10130010301006204B
S32508005D800000011044200418014007610C62020C120C2452012492200C1130322044413C74
S32508005DA062040C213082020C621024116C92803092400C92084892014892203C713021845E
S32508005DC092089082101892802421484301141892020C21F06130B1545240FC921490421C69
S32508005DE01861CC751442202462012482100C92013C92020C920430A13C92102492200C92F4
S32508005E00400C75384214B4618475B092148456107446043862200C560C5C5204D85680E0B1
S32508005E209608D4920CFC52209056282052800C5208244648A452402403202A000112FF0104
S32508005E40E1103404020406FF200501020304046005060708094B0000FFFFFFFFFFFFFFFF07
S32508005E60FFFFFFFFFFFFFFFFFFFFFFFFFFFFFFFFFFFFFFFFFFFFFFFFFFFFFFFFFFFFFFFF34
S32508005E80FFFFFFFFFFFFFFFFFFFFFFFFFFFFFFFFFFFFFFFFFFFFFFFFFFFFFFFFFFFFFFFF14
S32508005EA0FFFFFFFFFFFFFFFFFFFFFFFFFFFFFFFFFFFFFFFFFFFFFFFFFFFFFFFFFFFFFFFFF4
S32508005EC0FFFFFFFFFFFFFFFFFFFFFFFFFFFFFFFFFFFFFFFFFFFFFFFFFFFFFFFFFFFFFFFFD4
S3250800880074D8002045890008E1D90008EDD10008B1D90008A1A000088D030108000000000C
S3250800882000000000000000000000000079FB000881A5000800000000AB89000859FC0008E7
S32508008840B51A01085F8900085F8900085F8900085F8900085F8900085F8900085F890008A2
S3250800886031A600085F8900085F8900085F8900085F8900085F8900085F8900085F8900087B
S325080088805F8900085F8900085F8900085F8900085F8900085F8900085F89000859A6000833
S325080088A05F8900085F8900085F8900085F890008F9FD000825FE000851FE00085F8900087A
S325080088C05F8900085F8900085F8900085F8900085F890008250201085F8900082B02010884
S325080088E0B1A500085F8900085F8900085F8900085F8900085F8900085F8900085F8900087C
S325080089005F890008D5E800087DFE00085F8900085F8900085F8900085F8900085F89000861
S325080089205F8900085F8900085F8900085F890008DFF80CD000F082FE0048004761C7020885
S3250800894074D800200648804706480047FEE7FEE7FEE7FEE7FEE7FEE7FEE7FEE7FEE7FEE701
S325080089607DFC000831890008EFF3108072B6704780F31088704724484FF0FF010170002057
S3250800898080F309881D480121017020484FF08051016062B6FEE71D484FF08051016070476A
S325080089A01A484FF0805101607047EFF3098028B1203880E8F00F12490968086000B50A48E1
S325080089C080475DF804EB0B480B490A7802700C480C490A680260106890E8F00F203080F3B4
S325080089E009884EF0040E7047FBDF0008CDDB0008F4130020F6130020F7130020F913002099
S32508008A000C1400201414002022ED00E004ED00E072B6704762B67047EFF3108072B6704701
S32508008A2080F31088704710B5431A934209D28318881803E010F8011D03F8011D521EF9D2FC
S32508008A4010BD40EA01039B0703D009E008C9121F08C0042AFAD203E011F8013B00F8013B8F
S32508008A60521EF9D210BDD2B201E000F8012B491EFBD270470022F6E710B513460A460446B5
S32508008A801946FFF7F0FF204610BD30B505462A460B4612F8010B13F8014B08B1A042F8D090
S32508008AA01CB1002802D06D1CF1E7284630BD10B5044604E00B7800F8013B03B1491C521EF2
S32508008AC0F8D2204610BDCAB2401E10F8011F8A4202D00029F9D100207047421C10F8011B9F
S32508008AE00029FBD1801A704710B5002200E0521C835C8C5CA34201D1002BF8D1D8B2E1B25E
S32508008B00401A10BD30B504460020034600E05B1C934203D2E05CCD5C401BF8D030BD0346C9
S32508008B2011F8012B00F8012B002AF9D11846704730B505460020034600E05B1C934205D229
S32508008B40EC5CC85C201A01D1002CF6D130BD2DE9F04791460F4680460446002614F8015B98
S32508008B602DB100F0D3FB0068405DC007F6D12B2D02D02D2D18D0641E4A463946204600F065
S32508008B80D2FB27B13968A14201D1C7F8008071054FF002040BD54042002803DD21F076FAE7
S32508008BA00460A007BDE8F08746F48066E4E70028F8DA21F06BFA04606FF00040F2E770B524
S32508008BC0064621F063FA046805460A2200213046FFF7BDFF2C6070BDF0B480EA0102D40FF4
S32508008BE04200B2EB410F02D20246084611464A0042D0C30DDDB2C1F3C752AD1A202D35DACC
S32508008C00C1F3160141F4000204B15242C5F1200602FA06F12A411044B3EBD05F23D0C4B138
S32508008C20012DA0EBC35009DCF0BC4FF0004202EAC352DBB200F5000000F01BBC400000F1CD
S32508008C40807000EBC350A0F1807040EAD170490009E0490841EAC071A0EBC35000F50000BA
S32508008C60400800EBC350F0BC00F0FABB6142012202EB4101001BF6E7F0BC704781F000414D
S32508008C80AAE780F00040A7E780EA010210B502F00043400022D04A001FD0010E01EB1261B7
S32508008CA0C0F35600C2F3560240F4000042F40002A0FB022000047F39140400D0401C50EA2D
S32508008CC0124001D44000491EC2B20C0604EBD010401C4008802A02D003E0002010BD20F063
S32508008CE00100002900DA0020184310BD30B480EA010202F0004530F0004221F0004013D0FC
S32508008D0090B1C30DD40DC2F31601C0F31600E41A41F4000140F400027D34914201D3641C7C
S32508008D2000E04900002C02DA30BC002070474FF400000023914201D3891A034340084FEABA
S32508008D404101F7D151B1914202D14FF0004105E002D24FF0010101E06FF0010103EBC45095
S32508008D60284430BC00F07CBB420005D0C0F3C7525242914201DC0020704700EBC1507047B5
S32508008D802DE9FE4F804681EA0300C00F0C46009021F0004123F00045B8EB0200A94105D26D
S32508008DA04046214690461C460B46024623F00040104347D0270DC7F30A00C3F30A5102908F
S32508008DC0401A019040286BDAC3F3130040F4801B0098924620B10023D2EB030A63EB0B0BC3
S32508008DE001985946C0F14002504600F05EFA06460D4650465946019A00F076FA10EB08008A
S32508008E006141002487EA115284EAE7731A4340D0009A62B3019A012A4FEA075215DC001B62
S32508008E2061EB02014FF0004202EA0752CDE90042001C41F5801132462B4600F084FB03B029
S32508008E40BDE8F08F40462146F9E7001B61EB0201001C41F5801300185B412018A2F500172A
